:100000000C942A000C9447000C9447000C94470071
:100010000C9447000C9447000C9447000C94470044
:100020000C9447000C9447000C944C120C9447001D
:100030000C9447000C948A130C9447000C944700CE
:100040000C944F060C9447000C9447000C94470006
:100050000C94470011241FBECFE5D8E0DEBFCDBF12
:1000600011E0A0E6B0E0E4EFFFE202C005900D92DF
:10007000AA34B107D9F711E0AAE4B1E001C01D929A
:10008000A137B107E1F70E943F150C94F8170C94C3
:100090000000EF92FF920F931F937B018C0120E0F1
:1000A00030E040E05FE40E94F50388238CF0C80153
:1000B000B70120E030E040E05FE40E94C1010E940F
:1000C00055049B01AC01205030404040504806C0D0
:1000D000C801B7010E9455049B01AC01B901CA01D6
:1000E0001F910F91FF90EF900895A0E0B0E0EBE733
:1000F000F0E00C94C117DC012B01FA019C919230C5
:1001000008F439C1EB018881823008F433C194309E
:1001100069F4843009F02FC111969C91119789815F
:10012000981709F428C1ABEDB0E025C1843009F47B
:1001300021C18230A9F4923009F01DC19A01AD01AC
:1001400088E0EA010990AE01E90109929E0181501F
:10015000C1F7E201898111969C918923818308C1AD
:10016000923009F407C112962D903C901397EB0141
:100170008A819B811496AD90BD90CD90DC901797AD
:10018000EC80FD800E811F819101281B390BB90184
:1001900037FF04C066277727621B730B6032710537
:1001A0000CF061C0121613066CF537014801062EDB
:1001B00004C096948794779467940A94D2F721E0C8
:1001C00030E040E050E004C0220F331F441F551FB1
:1001D0006A95D2F721503040404050402E213F21B7
:1001E00040235123211531054105510521F021E01E
:1001F00030E040E050E079018A01E628F72808293C
:1002000019293CC0232BD1F1260E371E350146019A
:10021000062E04C096948794779467940A94D2F734
:1002200021E030E040E050E004C0220F331F441FC3
:10023000551F6A95D2F721503040404050402A2146
:100240003B214C215D21211531054105510521F04E
:1002500021E030E040E050E059016A01A628B728CB
:10026000C828D9280BC0821593052CF01C01AA249C
:10027000BB24650103C0EE24FF24870111969C91E5
:10028000D20111968C91981709F445C0992339F041
:10029000A80197012A193B094C095D0906C0A6016E
:1002A00095012E193F09400B510B57FD08C01182D3
:1002B0003382228224833583468357831DC081E0A5
:1002C00081833382228288279927DC01821B930B4A
:1002D000A40BB50B84839583A683B7830DC0220F2F
:1002E000331F441F551F24833583468357838281E0
:1002F000938101979383828324813581468157813D
:10030000DA01C9010197A109B1098F5F9F4FAF4F72
:10031000BF4328F30BC0918333822282EA0CFB1C7B
:100320000C1D1D1DE482F5820683178383E0808304
:10033000248135814681578157FF1AC0C901AA27F8
:1003400097FDA095BA2F81709070A070B0705695EF
:10035000479537952795822B932BA42BB52B848318
:100360009583A683B7838281938101969383828349
:10037000DF0101C0D201CD01CDB7DEB7E2E10C94BF
:10038000DD17A0E2B0E0E7ECF1E00C94CD17698353
:100390007A838B839C832D833E834F835887E9E048
:1003A000EE2EF12CEC0EFD1ECE010196B7010E943F
:1003B0007E058E010F5E1F4FCE010596B8010E948B
:1003C0007E058A8991E089278A8BC701B801AE0131
:1003D000475E5F4F0E9475000E94A904A096E6E068
:1003E0000C94E917A0E2B0E0E8EFF1E00C94CD172F
:1003F00069837A838B839C832D833E834F835887C5
:10040000F9E0EF2EF12CEC0EFD1ECE010196B701A6
:100410000E947E058E010F5E1F4FCE010596B8012A
:100420000E947E05C701B801AE01475E5F4F0E9482
:1004300075000E94A904A096E6E00C94E917A0E2DA
:10044000B0E0E5E2F2E00C94C11769837A838B8314
:100450009C832D833E834F835887CE010196BE0136
:10046000675F7F4F0E947E05CE010596BE016F5EDD
:100470007F4F0E947E059985923088F0898982306D
:10048000C8F0943019F4823051F404C0843029F457
:10049000923081F48BED90E0C6C0923049F420E0B8
:1004A0009A858A89981321E02A87CE010996BBC0D4
:1004B000823049F420E09A858A89981321E02A8BBA
:1004C000CE014196B0C02D843E844F8458886D88FB
:1004D0007E888F88988CEE24FF248701AA24BB2471
:1004E000650140E050E060E070E0E0E0F0E0C10174
:1004F00081709070892BE9F0E60CF71C081D191D1E
:100500009A01AB012A0D3B1D4C1D5D1D80E090E062
:10051000A0E0B0E0E614F7040805190520F481E036
:1005200090E0A0E0B0E0BA01A901480F591F6A1F8E
:100530007B1FAA0CBB1CCC1CDD1C97FE08C081E0F5
:1005400090E0A0E0B0E0A82AB92ACA2ADB2A3196B6
:10055000E032F10549F0660C771C881C991C569412
:10056000479437942794C3CFFA85EA892B893C892D
:100570008B859C85280F391F2E5F3F4F17C0CA01FE
:1005800081709070892B61F016950795F794E79428
:1005900080E090E0A0E0B0E8E82AF92A0A2B1B2BC3
:1005A00076956795579547952F5F3F4F77FDE7CF36
:1005B0000CC0440F551F661F771F17FD4160EE0CDE
:1005C000FF1C001F111F21503040403090E05907A0
:1005D00090E0690790E4790760F32B8F3C8FDB0193
:1005E000CA018F779070A070B07080349105A1051A
:1005F000B10561F447FD0AC0E114F10401051105DC
:1006000029F0405C5F4F6F4F7F4F40781A8EFE1786
:1006100011F081E08A8F4D8F5E8F6F8F78A383E01A
:10062000898FCE0149960E94A904A096E2E10C941C
:10063000DD17A8E1B0E0EFE1F3E00C94C91769839E
:100640007A838B839C832D833E834F835887B9E0C5
:10065000EB2EF12CEC0EFD1ECE010196B7010E948F
:100660007E058E010F5E1F4FCE010596B8010E94D8
:100670007E052985223008F47EC03989323010F495
:10068000B8017CC08A859A8989278A87243011F02D
:10069000223031F4231709F06EC06BED70E06EC0AC
:1006A000343039F41D861E861F86188A1C861B86E8
:1006B00004C0323021F484E08987B7015FC02B8504
:1006C0003C858B899C89281B390B3C872B87ED84C3
:1006D000FE840F851889AD88BE88CF88D88CEA142F
:1006E000FB040C051D0540F4EE0CFF1C001F111F40
:1006F000215030403C872B8720E030E040E050E044
:1007000080E090E0A0E0B0E460E070E0EA14FB0478
:100710000C051D0540F0282B392B4A2B5B2BEA18C2
:10072000FB080C091D09B695A79597958795EE0CC2
:10073000FF1C001F111F6F5F7F4F6F31710531F775
:10074000DA01C9018F779070A070B0708034910584
:10075000A105B10561F427FD0AC0E114F10401050A
:10076000110529F0205C3F4F4F4F5F4F20782D87B8
:100770003E874F87588BBE01675F7F4FCB010E943A
:10078000A9046896EAE00C94E517A8E1B0E0EBEC68
:10079000F3E00C94CD1769837A838B839C832D833C
:1007A0003E834F83588789E0E82EF12CEC0EFD1E26
:1007B000CE010196B7010E947E058E010F5E1F4F8C
:1007C000CE010596B8010E947E058985823040F0F1
:1007D0008989823028F0C701B8010E94F60501C05E
:1007E0008FEF6896E6E00C94E917A8E1B0E0EBEF34
:1007F000F3E00C94CD1769837A838B839C832D83DC
:100800003E834F83588789E0E82EF12CEC0EFD1EC5
:10081000CE010196B7010E947E058E010F5E1F4F2B
:10082000CE010596B8010E947E058985823040F090
:100830008989823028F0C701B8010E94F60501C0FD
:100840008FEF6896E6E00C94E917A8E1B0E0EBE2E0
:10085000F4E00C94CD1769837A838B839C832D837A
:100860003E834F83588789E0E82EF12CEC0EFD1E65
:10087000CE010196B7010E947E058E010F5E1F4FCB
:10088000CE010596B8010E947E058985823040F030
:100890008989823028F0C701B8010E94F60501C09D
:1008A00081E06896E6E00C94E917ACE0B0E0EBE597
:1008B000F4E00C94D11769837A838B839C83CE01F7
:1008C0000196BE016B5F7F4F0E947E058D81823055
:1008D00061F1823050F1843021F48E81882351F10E
:1008E0002EC02F81388537FD20C06E812F31310514
:1008F0001CF06623F9F023C08EE190E0821B930B7D
:1009000029853A854B855C8504C056954795379572
:1009100027958A95D2F76623B1F05095409530958A
:1009200021953F4F4F4F5F4F0EC020E030E040E039
:1009300050E009C02FEF3FEF4FEF5FE704C020E02A
:1009400030E040E050E8B901CA012C96E2E00C9496
:10095000ED17DF92EF92FF920F931F93FC01E4805B
:10096000F58006811781D1808081823048F480E053
:1009700090E0A0E1B0E0E82AF92A0A2B1B2BA5C0E1
:10098000843009F49FC0823021F4EE24FF248701D3
:1009900005C0E114F1040105110519F4E0E0F0E0EF
:1009A00096C0628173819FEF623879070CF05BC05B
:1009B00022E83FEF261B370B2A3131052CF020E0CF
:1009C00030E040E050E02AC0B801A701022E04C088
:1009D00076956795579547950A94D2F781E090E010
:1009E000A0E0B0E004C0880F991FAA1FBB1F2A9582
:1009F000D2F70197A109B1098E219F21A023B1232C
:100A00000097A105B10521F081E090E0A0E0B0E001
:100A10009A01AB01282B392B4A2B5B2BDA01C90138
:100A20008F779070A070B07080349105A105B105EA
:100A300039F427FF09C0205C3F4F4F4F5F4F04C080
:100A4000215C3F4F4F4F5F4FE0E0F0E02030A0E0EF
:100A50003A07A0E04A07A0E45A0710F0E1E0F0E00E
:100A600079018A0127C06038710564F5FB01E158FE
:100A7000FF4FD801C7018F779070A070B07080349D
:100A80009105A105B10539F4E7FE0DC080E490E0C1
:100A9000A0E0B0E004C08FE390E0A0E0B0E0E80E9A
:100AA000F91E0A1F1B1F17FF05C016950795F7941F
:100AB000E794319687E016950795F794E7948A9521
:100AC000D1F705C0EE24FF248701EFEFF0E06E2F91
:100AD000679566276795902F9F77D794DD24D794E5
:100AE0008E2F8695492F462B582F5D29B701CA01B5
:100AF0001F910F91FF90EF90DF900895FC01DB01B3
:100B0000408151812281622F6F7770E0221F22275E
:100B1000221F9381892F880F822B282F30E0991F65
:100B20009927991F11969C93119721153105A9F5C5
:100B3000411551056105710511F482E037C082E865
:100B40009FEF13969C938E9312979A01AB0167E0E7
:100B5000220F331F441F551F6A95D1F783E08C93F2
:100B60000DC0220F331F441F551F12968D919C916B
:100B70001397019713969C938E931297203080E0E1
:100B8000380780E0480780E4580758F314962D93FF
:100B90003D934D935C93179708952F3F310579F45A
:100BA000411551056105710519F484E08C93089590
:100BB00064FF03C081E08C9312C01C9210C02F57B9
:100BC000304013963C932E93129783E08C9387E0EA
:100BD000440F551F661F771F8A95D1F770641496CE
:100BE0004D935D936D937C93179708951F93DC014C
:100BF000FB019C91923008F447C08081823008F458
:100C000043C0943051F411961C91843099F5818140
:100C1000682F70E0611B71093FC0843021F0923071
:100C200031F48230B9F18181882389F12DC0119688
:100C30001C9111978230F1F081811817D9F4129626
:100C40002D913C911397828193818217930794F0A1
:100C500028173907BCF014968D919D910D90BC9189
:100C6000A02D2481358146815781281739074A07ED
:100C70005B0718F4112341F00AC082179307A407F9
:100C8000B50740F4112319F061E070E005C06FEF83
:100C90007FEF02C060E070E0CB011F9108951F92CA
:100CA0000F920FB60F9211242F933F938F939F9320
:100CB000EF93FF93DF93CF93CDB7DEB710924B0145
:100CC00010924A01E4E2F0E08081882F90E0909356
:100CD0004E0180934D01E5E2F0E0808180934C016C
:100CE00081E080934F0180914C01882F90E0982FF4
:100CF00088279C0180914D0190914E01822B932B6E
:100D000090934B0180934A01CF91DF91FF91EF9136
:100D10009F918F913F912F910F900FBE0F901F9039
:100D20001895DF93CF93CDB7DEB768970FB6F894D9
:100D3000DEBF0FBECDBF81E060E040E00E947909D8
:100D400081E061E040E00E947909E7E2F0E080E4C0
:100D50008083E6E2F0E08FE8808380E090E0A8E422
:100D6000B3E48D8B9E8BAF8BB88F6D897E898F8915
:100D7000988D2BEA3AEA4AEA50E40E941F02DC010D
:100D8000CB01898B9A8BAB8BBC8B69897A898B89D8
:100D90009C8920E030E040E85FE30E94250488233E
:100DA0001CF481E0888B91C069897A898B899C8940
:100DB00020E030E04FE753E40E94C50318160CF022
:100DC0007BC06D897E898F89988D20E030E04AE76D
:100DD00054E40E941903DC01CB018C879D87AE8708
:100DE000BF876C857D858E859F8520E030E04AE752
:100DF00055E40E941F02DC01CB0188879987AA87EE
:100E0000BB87688579858A859B8520E030E040E84E
:100E10005FE30E94250488232CF481E090E09F8307
:100E20008E833FC0688579858A859B8520E03FEF6A
:100E30004FE757E40E94C50318164CF56C857D8575
:100E40008E859F8520E030E040E251E40E941F0241
:100E5000DC01CB01BC01CD010E944900DC01CB01CA
:100E60009F838E830FC080E991E09D838C838C816A
:100E70009D810197F1F79D838C838E819F810197DE
:100E80009F838E838E819F81009769F724C0688538
:100E900079858A859B850E944900DC01CB019F836F
:100EA0008E838E819F819B838A838A819B81019718
:100EB000F1F79B838A830FC069897A898B899C8922
:100EC0000E944900DC01CB01888B88898983898154
:100ED0008A95F1F7898368960FB6F894DEBF0FBE46
:100EE000CDBFCF91DF910895DF93CF93CDB7DEB71C
:100EF00068970FB6F894DEBF0FBECDBFA6E2B0E094
:100F0000E6E2F0E0808180648C93E6E2F0E08081AC
:100F1000882F90E0807190700097B9F380E090E0A6
:100F2000A8E4B3E48D8B9E8BAF8BB88F6D897E89DF
:100F30008F89988D2BEA3AEA4AEA50E40E941F0210
:100F4000DC01CB01898B9A8BAB8BBC8B69897A894D
:100F50008B899C8920E030E040E85FE30E94250413
:100F600088231CF481E0888B91C069897A898B89F8
:100F70009C8920E030E04FE753E40E94C503181637
:100F80000CF07BC06D897E898F89988D20E030E0E0
:100F90004AE754E40E941903DC01CB018C879D874A
:100FA000AE87BF876C857D858E859F8520E030E08C
:100FB0004AE755E40E941F02DC01CB01888799872C
:100FC000AA87BB87688579858A859B8520E030E084
:100FD00040E85FE30E94250488232CF481E090E040
:100FE0009F838E833FC0688579858A859B8520E0B5
:100FF0003FEF4FE757E40E94C50318164CF56C8588
:101000007D858E859F8520E030E040E251E40E949E
:101010001F02DC01CB01BC01CD010E944900DC01B3
:10102000CB019F838E830FC080E991E09D838C83E9
:101030008C819D810197F1F79D838C838E819F81A7
:1010400001979F838E838E819F81009769F724C0CB
:10105000688579858A859B850E944900DC01CB01E2
:101060009F838E838E819F819B838A838A819B81CC
:101070000197F1F79B838A830FC069897A898B89ED
:101080009C890E944900DC01CB01888B8889898377
:1010900089818A95F1F7898368960FB6F894DEBF47
:1010A0000FBECDBFCF91DF910895DF93CF93CDB722
:1010B000DEB780914F01CF91DF910895DF93CF93F9
:1010C000CDB7DEB710924F0180914D0190914E0146
:1010D000CF91DF910895DF93CF93CDB7DEB78091A5
:1010E0004A0190914B01CF91DF9108950F931F9387
:1010F000DF93CF93CDB7DEB72D970FB6F894DEBF51
:101100000FBECDBF82E060E041E00E9479091D8200
:101110001C821B821A8288E0FE013696DF01982F1E
:101120001D929A95E9F780E690E09D838C8385E691
:1011300090E09B838A8382E060E041E00E945D0A48
:101140000AC0EC81FD8180810E94A3148C819D8165
:1011500001969D838C83EC81FD818081882389F7B2
:10116000198213C00E940B158823E1F38981082F8F
:1011700010E00E94BA14282FCE010696FC01E00F61
:10118000F11F208389818F5F89838981863050F3A5
:101190008981282F30E0CE010696FC01E20FF31F73
:1011A000108230C0EC81FD8180810E94A3148C816B
:1011B0009D8101969D838C83EC81FD8180818823B4
:1011C00089F7198213C00E940B158823E1F38981E6
:1011D000082F10E00E94BA14282FCE010696FC01B9
:1011E000E00FF11F208389818F5F89838981863099
:1011F00050F38981282F30E0CE010696FC01E20FE2
:10120000F31F10828A819B819E012A5F3F4F66E017
:10121000A90126E00E940D13882371F619820CC0E3
:101220008981282F30E0CE010696FC01E20FF31FE2
:10123000108289818F5F89838981883088F38981D1
:10124000282F30E0CE010696FC01E20FF31F10823A
:101250008AE690E09D838C8330C0EC81FD818081A3
:101260000E94A3148C819D8101969D838C83EC81C7
:10127000FD818081882389F7198213C00E940B1594
:101280008823E1F38981082F10E00E94BA14282FE7
:10129000CE010696FC01E00FF11F208389818F5F4C
:1012A00089838981863050F38981282F30E0CE01EF
:1012B0000696FC01E20FF31F10828A819B819E013A
:1012C0002A5F3F4F66E0A90126E00E940D138823A4
:1012D00071F682E060E040E00E945D0A2D960FB654
:1012E000F894DEBF0FBECDBFCF91DF911F910F915C
:1012F0000895DF93CF9300D000D00F92CDB7DEB723
:1013000089836A834B838981282F30E03D832C8336
:101310008C819D818230910509F444C02C813D81EE
:101320002330310534F48C819D818130910571F039
:10133000BCC02C813D812330310509F45FC08C8114
:101340009D818430910509F485C0AFC08B818130C7
:10135000A1F4AAE1B0E0EAE1F0E08081482F8A81BF
:10136000282F30E081E090E0022E02C0880F991F04
:101370000A94E2F7842B8C9398C0AAE1B0E0EAE1EA
:10138000F0E08081482F8A81282F30E081E090E0D2
:10139000022E02C0880F991F0A94E2F780958423D9
:1013A0008C9383C08B818130A1F4A7E1B0E0E7E1A9
:1013B000F0E08081482F8A81282F30E081E090E0A2
:1013C000022E02C0880F991F0A94E2F7842B8C9397
:1013D0006CC0A7E1B0E0E7E1F0E08081482F8A81AE
:1013E000282F30E081E090E0022E02C0880F991F84
:1013F0000A94E2F7809584238C9357C08B818130C7
:10140000A1F4A4E1B0E0E4E1F0E08081482F8A811A
:10141000282F30E081E090E0022E02C0880F991F53
:101420000A94E2F7842B8C9340C0A4E1B0E0E4E19D
:10143000F0E08081482F8A81282F30E081E090E021
:10144000022E02C0880F991F0A94E2F78095842328
:101450008C932BC08B818130A1F4A1E1B0E0E1E15C
:10146000F0E08081482F8A81282F30E081E090E0F1
:10147000022E02C0880F991F0A94E2F7842B8C93E6
:1014800014C0A1E1B0E0E1E1F0E08081482F8A8161
:10149000282F30E081E090E0022E02C0880F991FD3
:1014A0000A94E2F7809584238C930F900F900F900D
:1014B0000F900F90CF91DF910895DF93CF9300D0DD
:1014C00000D00F92CDB7DEB789836A834B838981C1
:1014D000282F30E03D832C838C819D8182309105C3
:1014E00009F457C02C813D812330310534F48C81BF
:1014F0009D818130910571F008C12C813D8123309F
:10150000310509F485C08C819D818430910509F4F1
:10151000BEC0FBC0AAE1B0E0EAE1F0E08081482F64
:101520008A81282F30E081E090E0022E02C0880FEF
:10153000991F0A94E2F7842B8C938B818823A1F066
:10154000ABE1B0E0EBE1F0E08081482F8A81282F09
:1015500030E081E090E0022E02C0880F991F0A94CB
:10156000E2F7842B8C93D1C0ABE1B0E0EBE1F0E08B
:101570008081482F8A81282F30E081E090E0022E80
:1015800002C0880F991F0A94E2F7809584238C93F8
:10159000BCC0A7E1B0E0E7E1F0E08081482F8A819C
:1015A000282F30E081E090E0022E02C0880F991FC2
:1015B0000A94E2F7842B8C938B818823A1F0A8E115
:1015C000B0E0E8E1F0E08081482F8A81282F30E008
:1015D00081E090E0022E02C0880F991F0A94E2F782
:1015E000842B8C9392C0A8E1B0E0E8E1F0E0808128
:1015F000482F8A81282F30E081E090E0022E02C03F
:10160000880F991F0A94E2F7809584238C937DC0FC
:10161000A4E1B0E0E4E1F0E08081482F8A81282F46
:1016200030E081E090E0022E02C0880F991F0A94FA
:10163000E2F7842B8C938B818823A1F0A5E1B0E0A5
:10164000E5E1F0E08081482F8A81282F30E081E0B9
:1016500090E0022E02C0880F991F0A94E2F7842BB3
:101660008C9353C0A5E1B0E0E5E1F0E08081482F24
:101670008A81282F30E081E090E0022E02C0880F9E
:10168000991F0A94E2F7809584238C933EC0A1E1D0
:10169000B0E0E1E1F0E08081482F8A81282F30E03E
:1016A00081E090E0022E02C0880F991F0A94E2F7B1
:1016B000842B8C938B818823A1F0A2E1B0E0E2E13E
:1016C000F0E08081482F8A81282F30E081E090E08F
:1016D000022E02C0880F991F0A94E2F7842B8C9384
:1016E00014C0A2E1B0E0E2E1F0E08081482F8A81FD
:1016F000282F30E081E090E0022E02C0880F991F71
:101700000A94E2F7809584238C930F900F900F90AA
:101710000F900F90CF91DF910895DF93CF9300D07A
:1017200000D000D0CDB7DEB78A836B8319828A815F
:10173000282F30E03E832D838D819E81823091055C
:1017400091F12D813E812330310534F48D819E81CC
:101750008130910569F077C02D813E8123303105BC
:10176000E1F18D819E818430910509F451C06BC0F7
:10177000AAE1B0E0EAE1F0E08081482F8B81282FD8
:1017800030E081E090E0022E02C0880F991F0A9499
:10179000E2F7809584238C93E9E1F0E080818983EE
:1017A00099819C8351C0A7E1B0E0E7E1F0E080813E
:1017B000482F8B81282F30E081E090E002C0880F15
:1017C000991F2A95E2F7809584238C93E6E1F0E057
:1017D0008081898329812C8337C0A4E1B0E0E4E1D2
:1017E000F0E08081482F8B81282F30E081E090E06D
:1017F000022E02C0880F991F0A94E2F78095842375
:101800008C93E3E1F0E08081898339813C831CC0C3
:10181000A1E1B0E0E1E1F0E08081482F8B81282F49
:1018200030E081E090E0022E02C0880F991F0A94F8
:10183000E2F7809584238C93E0E1F0E08081898356
:1018400089818C8301C01C828C8126960FB6F89406
:10185000DEBF0FBECDBFCF91DF910895DF93CF9351
:1018600000D000D0CDB7DEB789836A838981282F65
:1018700030E03C832B838B819C818230910511F178
:101880002B813C812330310534F48B819C81813064
:10189000910561F03AC02B813C8123303105F1F094
:1018A0008B819C818430910529F12FC08A81882306
:1018B00029F0EAE1F0E08FEF808327C0EAE1F0E071
:1018C000108223C08A81882329F0E7E1F0E08FEFBE
:1018D00080831BC0E7E1F0E0108217C08A81882373
:1018E00029F0E4E1F0E08FEF80830FC0E4E1F0E065
:1018F00010820BC08A81882329F0E1E1F0E08FEFAC
:10190000808303C0E1E1F0E010820F900F900F9010
:101910000F90CF91DF910895DF93CF9300D000D047
:10192000CDB7DEB789836A838981282F30E03C8375
:101930002B838B819C8182309105F9F02B813C8136
:101940002330310534F48B819C818130910561F025
:101950002EC02B813C8123303105C1F08B819C81CD
:1019600084309105E1F023C0EAE1F0E08FEF80835D
:10197000EBE1F0E08A8180831AC0E7E1F0E08FEFCD
:101980008083E8E1F0E08A81808311C0E4E1F0E047
:101990008FEF8083E5E1F0E08A81808308C0E1E198
:1019A000F0E08FEF8083E2E1F0E08A8180830F90A6
:1019B0000F900F900F90CF91DF910895DF93CF9309
:1019C000CDB7DEB76C970FB6F894DEBF0FBECDBFB4
:1019D00080E090E0A0E2B2E4898F9A8FAB8FBC8F59
:1019E000698D7A8D8B8D9C8D20E030E04AE755E43F
:1019F0000E941F02DC01CB018D8B9E8BAF8BB88FB9
:101A00006D897E898F89988D20E030E040E85FE322
:101A10000E94250488232CF481E090E09C8B8B8B22
:101A20003FC06D897E898F89988D20E03FEF4FE719
:101A300057E40E94C50318164CF5698D7A8D8B8D7D
:101A40009C8D20E030E040E251E40E941F02DC0166
:101A5000CB01BC01CD010E944900DC01CB019C8B74
:101A60008B8B0FC080E991E09A8B898B89899A8949
:101A70000197F1F79A8B898B8B899C8901979C8BB5
:101A80008B8B8B899C89009769F714C06D897E893F
:101A90008F89988D0E944900DC01CB019C8B8B8B38
:101AA0008B899C89988B8F878F8598890197F1F70F
:101AB000988B8F8784E067E041E00E94790984E099
:101AC00066E041E00E94790983E061E00E942E0C0B
:101AD00081E00E94EF0D88E30E94EF0D8FE00E94ED
:101AE000EF0D86E00E94EF0D80E090E0A0E2B1E40F
:101AF0008B879C87AD87BE876B857C858D859E8512
:101B000020E030E04AE755E40E941F02DC01CB01EF
:101B10008F839887A987BA876F81788589859A8509
:101B200020E030E040E85FE30E94250488232CF4A5
:101B300081E090E09E838D833FC06F8178858985A9
:101B40009A8520E03FEF4FE757E40E94C50318163F
:101B50004CF56B857C858D859E8520E030E040E2EC
:101B600051E40E941F02DC01CB01BC01CD010E94A7
:101B70004900DC01CB019E838D830FC080E991E099
:101B80009C838B838B819C810197F1F79C838B8352
:101B90008D819E8101979E838D838D819E8100978B
:101BA00069F714C06F81788589859A850E944900FC
:101BB000DC01CB019E838D838D819E819A838983F5
:101BC00089819A810197F1F79A8389836C960FB680
:101BD000F894DEBF0FBECDBFCF91DF910895DF93A4
:101BE000CF93CDB7DEB76D970FB6F894DEBF0FBEBB
:101BF000CDBF8D8F84E067E041E00E94790984E0E9
:101C000066E041E00E94790984E067E040E00E94DC
:101C10005D0AE5E3F0E08D8D808384E066E041E0DD
:101C20000E945D0A80E090E0A0E8BFE3898F9A8F70
:101C3000AB8FBC8F698D7A8D8B8D9C8D20E030E0D1
:101C40004AE755E40E941F02DC01CB018D8B9E8B7D
:101C5000AF8BB88F6D897E898F89988D20E030E0B9
:101C600040E85FE30E94250488232CF481E090E0A3
:101C70009C8B8B8B3FC06D897E898F89988D20E0EE
:101C80003FEF4FE757E40E94C50318164CF5698DE6
:101C90007A8D8B8D9C8D20E030E040E251E40E94F3
:101CA0001F02DC01CB01BC01CD010E944900DC0117
:101CB000CB019C8B8B8B0FC080E991E09A8B898B39
:101CC00089899A890197F1F79A8B898B8B899C89ED
:101CD00001979C8B8B8B8B899C89009769F714C02B
:101CE0006D897E898F89988D0E944900DC01CB0126
:101CF0009C8B8B8B8B899C89988B8F878F85988900
:101D00000197F1F7988B8F8784E066E040E00E94AE
:101D10005D0A80E090E0A0E2B1E48B879C87AD870C
:101D2000BE876B857C858D859E8520E030E04AE707
:101D300055E40E941F02DC01CB018F839887A9879D
:101D4000BA876F81788589859A8520E030E040E800
:101D50005FE30E94250488232CF481E090E09E83B9
:101D60008D833FC06F81788589859A8520E03FEF1C
:101D70004FE757E40E94C50318164CF56B857C8528
:101D80008D859E8520E030E040E251E40E941F02F4
:101D9000DC01CB01BC01CD010E944900DC01CB017B
:101DA0009E838D830FC080E991E09C838B838B8120
:101DB0009C810197F1F79C838B838D819E81019794
:101DC0009E838D838D819E81009769F714C06F81FA
:101DD000788589859A850E944900DC01CB019E8324
:101DE0008D838D819E819A83898389819A810197D0
:101DF000F1F79A8389836D960FB6F894DEBF0FBE14
:101E0000CDBFCF91DF910895DF93CF93CDB7DEB7EC
:101E10006D970FB6F894DEBF0FBECDBF8D8F84E0F7
:101E200067E041E00E94790984E066E041E00E94B9
:101E3000790984E067E041E00E945D0A84E066E0A1
:101E400041E00E945D0AE5E3F0E08D8D808380E053
:101E500090E0A0E0B0E4898F9A8FAB8FBC8F698D42
:101E60007A8D8B8D9C8D20E030E04AE755E40E940E
:101E70001F02DC01CB018D8B9E8BAF8BB88F6D89E0
:101E80007E898F89988D20E030E040E85FE30E94F2
:101E9000250488232CF481E090E09C8B8B8B3FC041
:101EA0006D897E898F89988D20E03FEF4FE757E459
:101EB0000E94C50318164CF5698D7A8D8B8D9C8D0B
:101EC00020E030E040E251E40E941F02DC01CB013F
:101ED000BC01CD010E944900DC01CB019C8B8B8BA6
:101EE0000FC080E991E09A8B898B89899A89019743
:101EF000F1F79A8B898B8B899C8901979C8B8B8BB3
:101F00008B899C89009769F714C06D897E898F89B8
:101F1000988D0E944900DC01CB019C8B8B8B8B89B7
:101F20009C89988B8F878F8598890197F1F7988B7B
:101F30008F8784E066E040E00E945D0A80E090E0E8
:101F4000A0E2B1E48B879C87AD87BE876B857C85DB
:101F50008D859E8520E030E04AE755E40E941F020F
:101F6000DC01CB018F839887A987BA876F81788539
:101F700089859A8520E030E040E85FE30E942504EF
:101F800088232CF481E090E09E838D833FC06F8195
:101F9000788589859A8520E03FEF4FE757E40E94D6
:101FA000C50318164CF56B857C858D859E8520E0D4
:101FB00030E040E251E40E941F02DC01CB01BC0191
:101FC000CD010E944900DC01CB019E838D830FC0AF
:101FD00080E991E09C838B838B819C810197F1F751
:101FE0009C838B838D819E8101979E838D838D81C0
:101FF0009E81009769F714C06F81788589859A85DD
:102000000E944900DC01CB019E838D838D819E81DE
:102010009A83898389819A810197F1F79A838983C9
:102020006D960FB6F894DEBF0FBECDBFCF91DF9196
:102030000895DF93CF93CDB7DEB781E00E94EF0D17
:10204000CF91DF9108950F931F93DF93CF93CDB777
:10205000DEB7A9970FB6F894DEBF0FBECDBF6EA353
:102060007FA388A799A71F821E821D8219821A82C8
:102070001B821C828EE1FE013896DF01982F1D9293
:102080009A95E9F78EA19FA1A8A5B9A589839A83FE
:10209000AB83BC838F81082F10E089819A81AB814B
:1020A000BC812AE030E040E050E0BC01CD010E945C
:1020B0009F17DC01CB01282F205DCE010896FC0183
:1020C000E00FF11F20838F818F5F8F8389819A8139
:1020D000AB81BC812AE030E040E050E0BC01CD01A2
:1020E0000E949F17DA01C90189839A83AB83BC835D
:1020F00089819A81AB81BC810097A105B10551F618
:102100008F81282F30E0CE010896FC01E20FF31FEB
:102110001082CE0108960E9413118D839E01285FC4
:102120003F4F8D81B9010E9431111E8203C08E8103
:102130008F5F8E838E81282F30E0CE010896FC01C0
:10214000E20FF31F8081882391F78E81282F30E0E2
:10215000CE010896FC01E20FF31F80818823E1F491
:102160008E818F5F8E838E81282F30E0CE0108967E
:10217000FC01E20FF31F80810E94040F8E818F5FAC
:102180008E838E81282F30E0CE010896FC01E20F6D
:10219000F31F8081882339F7A9960FB6F894DEBF24
:1021A0000FBECDBFCF91DF911F910F910895DF93A7
:1021B000CF9300D000D000D0CDB7DEB789836A833B
:1021C0004B838B81282F30E03E832D838D819E8130
:1021D0008230910581F02D813E812330310589F0D7
:1021E0008D819E818130910599F499818A81292F71
:1021F000280F2C830EC099818A81392F381B3C838C
:1022000008C099818A81989F802D11248C8301C0F8
:102210001C828C8126960FB6F894DEBF0FBECDBF10
:10222000CF91DF910895DF93CF9300D00F92CDB778
:10223000DEB79B838A83198208C089818F5F898377
:102240008A819B8101969B838A83EA81FB818081BD
:10225000882399F789810F900F900F90CF91DF918C
:102260000895DF93CF9300D000D000D0CDB7DEB774
:102270008C837E836D831B821A8219828C818B836F
:102280001A822CC08B81282F30E08D819E81FC0129
:10229000E20FF31F808189838B81282F30E08D81AD
:1022A0009E81DC01A20FB31F8A81282F30E08D812F
:1022B0009E81FC01E20FF31F80818C938A81282F7D
:1022C00030E08D819E81FC01E20FF31F89818083C4
:1022D0008B8181508B838A818F5F8A839A818B81E6
:1022E000981780F226960FB6F894DEBF0FBECDBFCA
:1022F000CF91DF9108950F931F93DF93CF93CDB7C5
:10230000DEB7AA970FB6F894DEBF0FBECDBF6FA39E
:1023100078A789A79AA718861F821E821D82198214
:102320001A821B821C828EE1FE013996DF01982FF2
:102330001D929A95E9F76FA178A589A59AA50E94A3
:102340004900DC01CB0189839A83AB83BC838885F8
:10235000082F10E089819A81AB81BC812AE030E0AE
:1023600040E050E0BC01CD010E949F17DC01CB0191
:10237000282F205DCE010996FC01E00FF11F20837C
:1023800088858F5F888789819A81AB81BC812AE0AB
:1023900030E040E050E0BC01CD010E949F17DA011F
:1023A000C90189839A83AB83BC8389819A81AB817C
:1023B000BC810097A105B10551F68885282F30E032
:1023C000CE010996FC01E20FF31F1082CE0109969F
:1023D0000E9413118E839E01275F3F4F8E81B901AA
:1023E0000E9431111F8203C08F818F5F8F838F8185
:1023F000282F30E0CE010996FC01E20FF31F808107
:10240000882391F78F81282F30E0CE010996FC01B7
:10241000E20FF31F80818823A1F58F818F5F8F8367
:102420008D818823A9F48F81282F30E0CE01099671
:10243000FC01E20FF31F80810E94040F8EE20E94D4
:10244000040F8F818F5F8F838D818F5F8D830EC08F
:102450008F81282F30E0CE010996FC01E20FF31F97
:1024600080810E94040F8F818F5F8F838F81282F3F
:1024700030E0CE010996FC01E20FF31F8081882332
:1024800079F6AA960FB6F894DEBF0FBECDBFCF91F6
:10249000DF911F910F9108951F920F920FB60F9227
:1024A00011248F939F93DF93CF93CDB7DEB78091A5
:1024B00050019091510101969093510180935001E8
:1024C000CF91DF919F918F910F900FBE0F901F9032
:1024D0001895DF93CF93CDB7DEB7E3E5F0E085E461
:1024E0008083ECE5F0E08FEF8083CF91DF9108955A
:1024F000DF93CF93CDB7DEB7E9E5F0E082E08083EC
:10250000CF91DF910895DF93CF93CDB7DEB7E9E5A3
:10251000F0E01082CF91DF910895DF93CF93CDB794
:10252000DEB78091500190915101CF91DF910895D4
:10253000DF93CF93CDB7DEB71092510110925001C7
:10254000CF91DF910895DF93CF93CDB7DEB784E0CD
:1025500065E041E00E947909EFE4F0E082E88083E1
:10256000EEE4F0E08DE18083E6E4F0E089E391E0E1
:1025700091838083CF91DF9108950F931F93DF9311
:10258000CF93CDB7DEB728970FB6F894DEBF0FBE56
:10259000CDBF6D837E838F83988780E090E0A0E03D
:1025A000B0E089839A83AB83BC836D817E818F8108
:1025B000988520E030E048EC52E40E941903DC01E9
:1025C000CB0189839A83AB83BC8369817A818B81B8
:1025D0009C8120E030E84CE953E40E941F02DC01BA
:1025E000CB0189839A83AB83BC830AE410E06981C1
:1025F0007A818B819C810E944900DC01CB01F8012A
:102600009183808328960FB6F894DEBF0FBECDBFAE
:10261000CF91DF911F910F910895DF93CF93CDB7A5
:10262000DEB728970FB6F894DEBF0FBECDBF9C83F0
:102630008B836D835F834E8328878D818A83198284
:102640001AC08981282F30E08B819C81FC01E20F28
:10265000F31F40818981282F30E08E819F81FC010A
:10266000E20FF31F8081481719F48A8181508A8311
:1026700089818F5F89838981282F30E08B819C81BC
:10268000FC01E20FF31F80818823D9F68981282F6E
:1026900030E08E819F81FC01E20FF31F808188234F
:1026A00081F68A8181508A838A8128960FB6F894B0
:1026B000DEBF0FBECDBFCF91DF910895DF93CF93E3
:1026C00000D000D0CDB7DEB79B838A836C8319829C
:1026D00019820EC08981282F30E08A819B81FC01FC
:1026E000E20FF31F80810E94040F89818F5F89832D
:1026F0008981282F30E08A819B81FC01E20FF31F42
:102700008081882339F70F900F900F900F90CF9111
:10271000DF9108951F920F920FB60F9211248F939D
:10272000EF93FF93DF93CF93CDB7DEB781E0809334
:102730005201ECE2F0E0808180935301CF91DF9170
:10274000FF91EF918F910F900FBE0F901F901895F2
:10275000DF93CF93CDB7DEB728970FB6F894DEBFDF
:102760000FBECDBF69837A838B839C83AAE2B0E0DE
:10277000EAE2F0E0808188608C93AAE2B0E0EAE2CD
:10278000F0E0808180618C93E0E4F0E086E8808373
:1027900089819A81AB81BC818D839E83AF83B88709
:1027A0008D819E81AF81B885803428E3920720E037
:1027B000A20720E0B20709F48DC08D819E81AF8110
:1027C000B885813428E3920720E0A20720E0B20711
:1027D00040F58D819E81AF81B885803C22E19207D2
:1027E00020E0A20720E0B20709F464C08D819E8139
:1027F000AF81B885803825E2920720E0A20720E06B
:10280000B20709F45FC08D819E81AF81B8858036A3
:1028100029E0920720E0A20720E0B20709F441C0B6
:1028200081C08D819E81AF81B885803820E7920775
:1028300020E0A20720E0B20709F45CC08D819E81F0
:10284000AF81B885813820E7920720E0A20720E019
:10285000B20768F48D819E81AF81B88580302BE40A
:10286000920720E0A20720E0B207E1F15BC08D8172
:102870009E81AF81B885803026E9920720E0A207CB
:1028800020E0B20709F43EC08D819E81AF81B885FA
:10289000803021EE920720E0A20720E0B207D1F1BC
:1028A00041C0E0E4F0E081E08083E9E2F0E080EA2A
:1028B000808340C0E0E4F0E01082E9E2F0E08FECD9
:1028C000808338C0E0E4F0E01082E9E2F0E087E6DF
:1028D000808330C0E0E4F0E01082E9E2F0E084E4DC
:1028E000808328C0E0E4F0E01082E9E2F0E083E3D6
:1028F000808320C0E0E4F0E01082E9E2F0E082E2D0
:10290000808318C0E0E4F0E01082E9E2F0E089E1C1
:10291000808310C0E0E4F0E01082E9E2F0E080E1C2
:10292000808308C0E0E4F0E081E08083E9E2F0E049
:1029300080EA808328960FB6F894DEBF0FBECDBF25
:10294000CF91DF910895DF93CF930F92CDB7DEB78C
:102950008983EBE2F0E08081882F90E080729070B4
:102960000097B9F3ECE2F0E0898180830F90CF917A
:10297000DF910895DF93CF93CDB7DEB71092520168
:1029800080915301CF91DF910895DF93CF9300D0D1
:102990000F92CDB7DEB78983AFE3B0E0EFE3F0E0AD
:1029A000808180688C938981282F30E03B832A8343
:1029B0008A819B818230910591F02A813B8123306D
:1029C0003105A9F08A819B8181309105F1F4AAE259
:1029D000B0E0EAE2F0E0808180688C9316C0AAE261
:1029E000B0E0EAE2F0E0808180648C930EC0AAE25D
:1029F000B0E0EAE2F0E0808180648C93AAE2B0E08B
:102A0000EAE2F0E0808180688C930F900F900F9045
:102A1000CF91DF910895DF93CF93CDB7DEB780914B
:102A20005201CF91DF910895DF93CF9300D000D072
:102A3000CDB7DEB79B838A836C8319820EC08981F0
:102A4000282F30E08A819B81FC01E20FF31F8081F7
:102A50000E94A31489818F5F89838981282F30E0A8
:102A60008A819B81FC01E20FF31F8081882339F763
:102A70000F900F900F900F90CF91DF9108950F93CB
:102A80001F93DF93CF93CDB7DEB76C970FB6F89453
:102A9000DEBF0FBECDBF0E94DE0C0E94A31284E0F9
:102AA00062E041E00E94790984E063E041E00E9435
:102AB00079090E94910660E875E280E090E00E944A
:102AC000A81383E00E94C5140E9476080E94691230
:102AD0000E94740778940E940B158823E1F31092EA
:102AE0006F0113C080916F01082F10E00E94BA148B
:102AF000F801EA5AFE4F80830E940B158823E1F308
:102B000080916F018F5F80936F0180916F018F3093
:102B100048F31092660187EF90E068E00E945E1330
:102B200088E191E060E10E945E1387EF90E068E049
:102B30000E94141588E191E060E10E9414150E9442
:102B40000B158823E1F310926F0113C080916F0180
:102B5000082F10E00E94BA14F801E959FE4F808353
:102B60000E940B158823E1F380916F018F5F8093A2
:102B70006F0180916F01833048F310926B0183E005
:102B800080936E012091E3003091E40086E591E0AE
:102B90006DE0A9012DE00E940D138823E1F520913D
:102BA000ED003091EE0087E691E064E0A90124E0B9
:102BB0000E940D13882379F560E070E080E291E4D3
:102BC0000E94BD120E9478120E948D1221E0813372
:102BD0009207D1F70E9498120E9483120E946B08FC
:102BE0009093550180935401809154019091550127
:102BF000803F910598F7809154019091550100977D
:102C000069F360E070E080EF90E40E94BD1282E022
:102C100080936E0160CF2091E5003091E60086E55B
:102C200091E06BE0A9012BE00E940D13882389F449
:102C30002091EF003091F00087E691E064E0A90177
:102C400024E00E940D13882321F482E080936E011A
:102C500042CF2091E7003091E80086E591E06DE0F9
:102C6000A9012DE00E940D13882389F42091F10021
:102C70003091F20087E691E064E0A90124E00E942F
:102C80000D13882321F482E080936E0124CF2091DC
:102C9000E9003091EA0086E591E06FE0A9012FE0BC
:102CA0000E940D13882389F42091F3003091F400E1
:102CB00087E691E064E0A90124E00E940D138823D7
:102CC00021F482E080936E0106CF2091EB003091D9
:102CD000EC0086E591E06BE0A9012BE00E940D136A
:102CE000882309F01CC12091F5003091F60087E699
:102CF00091E064E0A90124E00E940D13882309F00B
:102D00000EC182E080936E01E6CE88E291E061E23E
:102D10000E945E1310927001FDC084E062E041E009
:102D20000E945D0A84E063E041E00E945D0A80E069
:102D300090E0AAEFB3E4898F9A8FAB8FBC8F698D37
:102D40007A8D8B8D9C8D20E030E04AE755E40E941F
:102D50001F02DC01CB018D8B9E8BAF8BB88F6D89F1
:102D60007E898F89988D20E030E040E85FE30E9403
:102D7000250488232CF481E090E09C8B8B8B3FC052
:102D80006D897E898F89988D20E03FEF4FE757E46A
:102D90000E94C50318164CF5698D7A8D8B8D9C8D1C
:102DA00020E030E040E251E40E941F02DC01CB0150
:102DB000BC01CD010E944900DC01CB019C8B8B8BB7
:102DC0000FC080E991E09A8B898B89899A89019754
:102DD000F1F79A8B898B8B899C8901979C8B8B8BC4
:102DE0008B899C89009769F714C06D897E898F89CA
:102DF000988D0E944900DC01CB019C8B8B8B8B89C9
:102E00009C89988B8F878F8598890197F1F7988B8C
:102E10008F8784E062E040E00E945D0A84E063E026
:102E200040E00E945D0A80E090E0AAEFB3E48B8767
:102E30009C87AD87BE876B857C858D859E8520E0D0
:102E400030E04AE755E40E941F02DC01CB018F838A
:102E50009887A987BA876F81788589859A8520E0C8
:102E600030E040E85FE30E94250488232CF481E0F1
:102E700090E09E838D833FC06F81788589859A8598
:102E800020E03FEF4FE757E40E94C50318164CF5CA
:102E90006B857C858D859E8520E030E040E251E4A5
:102EA0000E941F02DC01CB01BC01CD010E94490040
:102EB000DC01CB019E838D830FC080E991E09C8370
:102EC0008B838B819C810197F1F79C838B838D8110
:102ED0009E8101979E838D838D819E81009769F7E6
:102EE00014C06F81788589859A850E944900DC012C
:102EF000CB019E838D838D819E819A838983898175
:102F00009A810197F1F79A838983809170018F5F8D
:102F10008093700180917001853008F4FECE80911D
:102F20006E01882309F4F1CE80916E018150809367
:102F30006E018FEF90E069E10E945E1323CEA1E263
:102F40001A2EAA1BBB1BFD010DC0AA1FBB1FEE1F23
:102F5000FF1FA217B307E407F50720F0A21BB30B6E
:102F6000E40BF50B661F771F881F991F1A9469F7EA
:102F700060957095809590959B01AC01BD01CF0146
:102F800008952F923F924F925F926F927F928F920D
:102F90009F92AF92BF92CF92DF92EF92FF920F93E8
:102FA0001F93CF93DF93CDB7DEB7CA1BDB0B0FB6F2
:102FB000F894DEBF0FBECDBF09942A8839884888AF
:102FC0005F846E847D848C849B84AA84B984C88445
:102FD000DF80EE80FD800C811B81AA81B981CE0F3C
:102FE000D11D0FB6F894DEBF0FBECDBFED01089521
:042FF000F894FFCF83
:102FF40041540D0A004F4B0D0A0041542B554152C8
:10300400543D393630302C312C302C0D0A004573A8
:103014006C616D204962726168696D0041686D651B
:10302400642041737361660041686D656420496280
:10303400726168696D004875737365696E20456CCB
:1030440073617965640041686D65642047616265F8
:10305400720031323334003538363300343134378A
:1030640000393037330033333533000000000000BB
:103074000000007E008C009800A600B600C200C7C5
:1030840000CC00D100D60057656C636F6D650057A6
:10309400726F6E672050617373776F72642C547211
:1030A4007920416761696E002C456E746572205009
:1030B400617373776F726400596F7520656E746500
:1030C4007265642077726F6E672044617461203288
:0A30D4002074696D6573212100006E
:00000001FF
